:020000041000EA
:1000000000B50C4B00219960042159610A4919601F
:100010000A490B480160002159600121996001BC27
:10002000002800D0004707480749086003C880F34C
:10003000088808470000001800031F00180200038A
:10004000F40000180001001008ED00E000000000BE
:1000500000000000000000000000000000000000A0
:100060000000000000000000000000000000000090
:100070000000000000000000000000000000000080
:100080000000000000000000000000000000000070
:100090000000000000000000000000000000000060
:1000A0000000000000000000000000000000000050
:1000B0000000000000000000000000000000000040
:1000C0000000000000000000000000000000000030
:1000D0000000000000000000000000000000000020
:1000E0000000000000000000000000000000000010
:1000F0000000000000000000000000002CEC210DBA
:1001000000200420F7010010C3010010C5010010F9
:10011000C1010010C1010010C1010010C101001097
:10012000C1010010C1010010C101001015630010D1
:10013000C1010010C101001071630010B56300100F
:10014000CD010010CD010010CD010010CD01001037
:10015000CD010010CD010010CD010010CD01001027
:10016000CD010010CD010010CD010010CD01001017
:10017000CD010010CD010010CD010010CD01001007
:10018000CD010010CD010010CD010010CD010010F7
:10019000CD010010CD010010CD010010CD010010E7
:1001A000CD010010CD010010CD010010CD010010D7
:1001B000CD010010CD010010CD010010CD010010C7
:1001C00000BE00BE00BE00BE00BE00BEEFF3058054
:1001D000103800BEF2EB8871D0830010F883001055
:1001E0003402001090A31AE700201F49086006C8D7
:1001F00081F3088810471D48006800282FD10DA4FE
:100200000ECC002902D000F012F8F9E71849194A7B
:10021000002000E001C19142FCD1174988471749ED
:1002200088471749884700BEFDE701C901C29A42C5
:10023000FBD37047F8830010C00000207017002027
:10024000A89A00100000042000000420A89A0010C2
:10025000001004200010042000000000704709482E
:1002600001F0ECFD0047000008ED00E0000000D0C8
:1002700070170020D4260020811C00108503001078
:10028000A91D00105756000006005250ABB3605332
:100290001081001006005250861C030230810010AD
:1002A000060052505422A29D3C810010050052507D
:1002B000DE65F468A89A0010F8B5C0460448054BFE
:1002C00010B5834203D0044B002B00D0984710BDDB
:1002D0007017002070170020000000000648074932
:1002E000091A8B10C90FC91810B5491003D0044B57
:1002F000002B00D0984710BD701700207017002009
:100300000000000010B5074C2378002B09D1FFF73F
:10031000D5FF054B002B02D0044800E000BF0123AD
:10032000237010BDC81900200000000018800010C4
:10033000054B10B5002B03D00449054800E000BF71
:10034000FFF7CCFF10BDC04600000000CC19002014
:100350001880001010B5044C200001F0D3FFC82015
:1003600004F0F6FFF8E7C0461880001010B5044C02
:10037000200001F0C7FFC82004F0EAFFF8E7C046FC
:100380002C80001030B583B001F0F2FF002501246D
:10039000802200230949520009480195009404F085
:1003A00025FB80220023074952000748019500944D
:1003B00004F01CFB04F02CFEFEE7C0464080001059
:1003C00055030010488000106D030010094A830097
:1003D00094464022634410B51C68C0006240C024AB
:1003E00014408022520113431C60034B9C4660441E
:1003F000416010BD04C0014000400140024B18683C
:100400008007C00F7047C04600C0064070B5EFF3CC
:10041000108C72B60D4D2B68002BFCD0BFF35F8F94
:100420000724CB08C618C05C01230C40A3401C0065
:100430000440034207D103433370BFF35F8F2C6046
:100440008CF3108870BD100001F0B2FC2C0100D0BC
:10045000F8B54746CE46884680B5EFF3108C72B6A5
:10046000214D2C68002CFCD0BFF35F8F9A422CD812
:10047000D4080727055D061901241740BC402C420B
:100480001FD007210127894609E0D408055D061918
:100490004C4639001440A1400C00294211D00132D1
:1004A0009342F2D201204042BFF35F8F00220E4BF5
:1004B0001A608CF3108800280FDBC0BCB946B04628
:1004C000F8BD2C4310003470EEE7BFF35F8F0023BC
:1004D0002B608CF31088012040424346002BECD067
:1004E000089801F065FCC0462C0100D00021044BA7
:1004F000044ABFF35F8F02C39342FAD17047C046EC
:10050000000100D0800100D0044A1078431CDBB207
:10051000172B00D9102313707047C046180E002007
:1005200000B5054B83B00100009318221F23034838
:10053000FFF78EFF03B000BD50800010C0200020E8
:1005400001238340002904D0034A1360034A136047
:100550007047034A1360FBE780E200E000E100E03F
:1005600080E100E001238340014A13607047C046E8
:1005700000E200E0084B10309B688000C358002B5D
:1005800007D0064A00209B1A2F229A424041C0B24F
:1005900070470020FCE7C04600ED00E01C0E002084
:1005A000024B10309B688000C058704700ED00E09F
:1005B00070B50D00EFF3108672B60F4A1368002B6A
:1005C000FCD0BFF35F8F0D4B10309B6884001B592C
:1005D0000B4A934203D09D4201D001F001FC074B2E
:1005E0009B681D51BFF35F8FBFF35F8F0022024BEB
:1005F0001A6086F3108870BD240100D000ED00E081
:10060000CD010010F0B557464E46DE464546E0B5F2
:1006100085B0060002911700EFF3108B72B6674A9F
:100620001368002BFCD0BFF35F8F0025644B5D5730
:100630009A46002D00DAA4E06B00624C03935B192C
:100640009B009846A146C1444B4652469B791036C2
:1006500013705D4BB2009B68019299580B1B2F2BB6
:1006600034D95A4B994200D0A4E0039B584A9C4687
:10067000584B6544AD006353434602336519E41893
:10068000554B0121043B1B1B1B055B0D13436B806A
:10069000524BEF71AB80FF23AB71029BAB604B46BB
:1006A0000B431900484B019A9B689950BFF35F8F29
:1006B000BFF35F8F0022414B1A608BF3108805B0A7
:1006C000F0BCBB46B246A946A046F0BD01200A00D8
:1006D0008243D379BB422FD845464E46130040494A
:1006E0001B1B5B415943090D3A4B63533A4B02358F
:1006F0006519043B5B1B1B05354D5B0D2B4373805C
:100700000426B446E0444444131F1B1B4C46A1710D
:1007100002991B05A16049465B0D2B43A380314B19
:10072000E77101431360BDE75800C018800020182E
:10073000C679BE422BD902000623D356002BF3DA2A
:10074000101D82462848804604267642B446E1447D
:1007500050464E46361A3005400D824656461C48D5
:10076000957106439680039A944665441D4AAD00F0
:10077000641922604246A371029BA280E771A360C4
:1007800090E701F02DFB002553465D5754E7101DFF
:10079000824690884005001584464046D44466460B
:1007A00004302018301AE0260005400D3602304390
:1007B0008046C9E701F014FB57E7C046240100D08A
:1007C000CD2600201C0E002000ED00E0CD01001021
:1007D00000E0FFFF00A1FFFF4C0E002001BDFFFF66
:1007E000AAAA00000148804701BD0000F0B5DE461E
:1007F00057464E464546E0B50C0083B0EFF31089EE
:1008000072B6584A1368002BFCD0BFF35F8F564B6B
:100810009A68030010339F00D559544A9046954278
:1008200032D0A54243D0524EAA1B2F2A2CD80122E7
:100830008240924651464F4A1268114001915146FA
:100840004D4A1160BFF35F8FEFF305829346002A94
:1008500033D101232A009A4393689C4208D177E060
:100860004B005B189B00F3189968A1422AD01A002C
:10087000062151560029F3DA019B002B19D052466C
:100880003E4B1A603B4B1A60374B9B68DD51BFF300
:100890005F8FBFF35F8F0022324B1A6089F310889D
:1008A00003B0F0BCBB46B246A946A046F0BD150059
:1008B000EAE75246304B1A60E6E79342C9D001F0AE
:1008C0008FFAC6E706215956002921DB4A00501845
:1008D000800034188046A0689860E079D8710620BE
:1008E00020569871002824DBA488F01A640524158A
:1008F00044440019E0240005400D24022043988060
:1009000052181F4B9200B6181A781970B271B3E7DB
:10091000594600290FD1FF3191711A499180184928
:100920000A789A71184A9B1B5B415A43120D0A7050
:10093000A2E71648E3E7164A1649D21A083A5002C7
:10094000400D01439980144952080A43DA8093E725
:100950000621515613000029B8DA5A46002AEAD176
:100960004546DCE7240100D000ED00E0CD01001099
:100970001C0E002000E100E080E100E080E200E0E9
:10098000CD26002001BDFFFFAAAA000001BD000086
:10099000560E002000F0FFFF00F8FFFF70B5EFF3E8
:1009A000058101240443EFF3108C72B6214A1368C9
:1009B000002BFCD0BFF35F8F1F4B05001F4AED1AC1
:1009C0006D416A43120D1E4D8900AE6852B27658D1
:1009D000A6421CD00621595691421CD012215956CC
:1009E000914222D01E215956914220D02A21595697
:1009F0000324914210D0134B19781A708171BFF300
:100A00005F8F00220B4B1A608CF3108870BDAB68AF
:100A10000D4C5C50EFE700246100091989005B1858
:100A2000FF21997109499980E5E70124F4E702243F
:100A3000F2E7C046240100D01C0E0020AAAA000044
:100A400000ED00E0CD260020CD01001001BDFFFF2C
:100A5000054B064A1360064A136053609360D360E7
:100A600013615361936170478080808000E400E0EF
:100A700004E400E000B5074B83B0010000930022BE
:100A800005230548FFF7E4FC002801DB1F23181AA3
:100A900003B000BD6C800010D2260020024B9C46A3
:100AA00061448900016070474000003410B50400C3
:100AB000FFF72AFD01002000FFF7F0FFFF2323715D
:100AC000BFF35F8F10BDC04610B50400FFF71CFDDB
:100AD00001002000FFF7E2FFFF23A380BFF35F8F39
:100AE00010BDC04610B504000120FFF719FD044BEE
:100AF0009C46604480002060BFF35F8F10BDC046FD
:100B000040000034034B9C46614489000160BFF300
:100B10005F8F70474000003483680B4810B58446EF
:100B200061446244090112019A18591854684B68CB
:100B300001209C4201D802D00020C0B210BD126832
:100B40000B689A42F9D8F7E7FFFFFF0F0A4B1968C5
:100B5000EFF3108072B60A68002AFCD0BFF35F8FF3
:100B60001B68BFF35F8F00221A6080F3108840BFBC
:100B7000002000217047C04694260020F8B5574653
:100B80004E464546DE46E0B599460CAB1C780DABAB
:100B90001B78060090469A460768002C11D1BC7B52
:100BA000002C42D065003B682D19033D59194B7844
:100BB000BB73002B00D1FB7300238B704B700B7049
:100BC00004E065003B682D19033D5919B2682A4BB2
:100BD00094464246E3181B0163441A604A465A6031
:100BE0000A9A9A600B9ADA6000238B704B700B7034
:100BF0007B7B9B46002B2BD022005946B8687B6834
:100C000098473A68002816D05B4658465B005B441C
:100C10005519033BA870D118D35C002B00D06B7022
:100C20005B460C707B73A34513D0F0BCBB46B24649
:100C3000A946A046F8BD5B465B005B44033BD31866
:100C40009C705119525D002A00D05A705B460B709F
:100C50007C7342464B46307D00F016FB051E06D0E5
:100C60005346002B03D12100306800F037FD0E9B66
:100C7000002BDAD01D70D8E7FFFFFF0FF0B5DE467E
:100C800057464E4645460023E0B58BB00893664B69
:100C90008200D45800239B46099000F0A5FA6268B0
:100CA00006000F00EFF3108572B61368002BFCD01E
:100CB000BFF35F8F23689C465B7B9946002B68D00F
:100CC000A2685A4B90464B441B01984443461A680D
:100CD0005B6810001900801BB941002963DD099889
:100CE00000F0D2FA002300229846002306920793D0
:100CF00000239A466368BFF35F8F5A461A6085F3F4
:100D000010885346002B08D10028C6D10BB0F0BC88
:100D1000BB46B246A946A046F0BD089B4146180214
:100D20004B461843D047626806000F00EFF310856A
:100D300072B61368002BFCD0BFF35F8F002F4FDB20
:100D400033003B4302D02369002B60D12368D97B59
:100D5000002907D04A00521819688C464946624457
:100D6000033A51709A7B002A01D14A469A734A4647
:100D7000DA734B46E168013BCA5C0132CA545B46F8
:100D800023616368BFF35F8F5A461A6085F310884A
:100D900083E700230022984600230692079300234E
:100DA00000209A46A6E7002901D1002897D100210A
:100DB000604600F011FC43461A685B680692079390
:100DC00043469B689A464346DB689846E3684B4433
:100DD000013B1B7808931B0203432361002089E732
:100DE0002369002BB2D0069A079B921BBB41002BB4
:100DF00015DB594604910121039149460291414670
:100E00000191514620000091FFF7B8FEB7E700F0CE
:100E1000EBF932003B0012184B41002BE9DA0122BA
:100E2000034B5242E5E7C04678250020FFFFFF0F45
:100E3000FFFFFF7F10B5144C6368002B04D00A211C
:100E40001248FFF72BFE10BD2300114A1021206825
:100E500000F0DCFA032000F0BBF9032000F084FA74
:100E600003200C4900F0CAF9FFF74EFB0A4B9C46E1
:100E700003232375D0231B061B6860446375074B4F
:100E800080006060DC60DAE7640E002094260020B9
:100E9000190B00107D0C0010400000347825002054
:100EA00000487047640E0020F0B557464E46454650
:100EB000DE46E0B585B0019310AB1B7806000393C6
:100EC00000239A46984600927268EFF3108972B632
:100ED0001368002BFCD0BFF35F8F3568AC7B002C10
:100EE00049D067002B683F19033FDB195A78AA7372
:100EF000002A00D1EA73B168484A8C4600980199EB
:100F0000A21812016244106051600E9991600F990D
:100F1000D16042469A705A701A706B7B9B46002BC8
:100F200045D022001900A8686B6898472A680028F5
:100F300030D05B4658465B005B44D719033BB87022
:100F4000D118D35C002B00D07B705B460C706B73A8
:100F50005C452DD0F3681B19013B18787368BFF30B
:100F60005F8F42461A6089F310885346002B2CD1BC
:100F70000002204307E07368BFF35F8F1C6089F3B2
:100F800010880120404205B0F0BCBB46B246A946DD
:100F9000A046F0BD5B465B005B44033BD3189C70EE
:100FA000D119D25D002A00D05A705B460B706C7369
:100FB000307D009A019B00F067F982460028C9D075
:100FC0002100306800F08AFBC4E7039B002B23D08C
:100FD0000E9B00200F999847030004000D000B435F
:100FE0001AD000290ADA009A019B121BAB41009229
:100FF0000193002B0ADB039B9A4665E700F0F4F8A7
:1010000024184D4100940195002DF4DA0123044C7D
:101010005B4200930194EEE70020B4E7FFFFFF0F6F
:10102000FFFFFF7F70B542680400EFF3108572B6D2
:101030001368002BFCD0BFF35F8F2068CEB2437BD8
:10104000B3420AD0FF230B405A00D31802689446DB
:101050006344033B9B78002B13D0E268FF23944644
:101060000B406344013B0A0A1978D2B291420ED078
:1010700000206368BFF35F8F00221A6085F3108839
:1010800070BD22698A42F3D100202361F1E731006B
:1010900000F024FBEDE7C046407D704770B5EFF3EC
:1010A000058305000C0084B0002B0AD0164A0020EE
:1010B000536A9C4203D8926A0130AA421FD304B0FB
:1010C00070BD124E02930193114B02000093300049
:1010D0000B00FFF7E9FE011EE8DD20BF3000FFF73F
:1010E000A1FF094B0020596A8C42E8D89B6A013065
:1010F000AB42E4D2641A631E9C41E0B2DFE7E41A1B
:10110000631E9C41E0B2DAE700400540640E002017
:101110004D0B0010F0B5EFF30582D6464F4646461C
:101120001000C0B51038EFF3108872B6214C236858
:10113000002BFCD0BFF35F8F0123190081401E4DAF
:101140001F006963AA461D4D29601D4D2E78AC46CF
:101150003500C5402F402B4209D1BFF35F8F276078
:1011600088F31088E0BCBA46B146A846F0BD5346A5
:10117000144D5F6A83005D59AF420ED3124A8E430D
:101180009B5862461670BFF35F8F0022226088F37F
:101190001088002BE6D09847E4E70C4B92009C4661
:1011A000624413681360BFF35F8F0023236088F3EA
:1011B0001088D7E7280100D0004005403C7005406A
:1011C000D1260020A0260020A01F0020D03F0540EF
:1011D00010B50100024A0348FFF718F910BDC046D8
:1011E00088800010CC260020034B596A0A00986AB8
:1011F000596A8A42FAD170470040054070B5040030
:101200000D00EFF3108672B61A4A1368002BFCD05B
:10121000BFF35F8F002D1BD02000FFF7C1F91649E7
:1012200081420AD02000FFF7C3F901212000FFF717
:1012300087F90123A340114A1360114BA400E55024
:10124000BFF35F8F00220B4B1A6086F3108870BDCE
:101250000B4BA200D5500122A2400A4920000B7876
:1012600093430B700449FFF7C1FA00212000FFF7F8
:1012700067F9E5E7280100D0151100103860054036
:10128000A01F0020D1260020F0B54F46D646464686
:10129000C0B507002F4C616A0D00A66A616AA942B9
:1012A000FAD18B4208D805D00120E0BCBA46B1463D
:1012B000A846F0BDB242F7D9EFF3108A72B62648BD
:1012C00001680029FCD0BFF35F8F0125BD40234991
:1012D000204C8846097889462943C9B28C46414644
:1012E00060460870391D1E48890065630A51B900BF
:1012F0000B50216A0020294219D0616A0800A66AB1
:10130000616A8142FAD18B4219D801D1B24216D812
:10131000CC451DD00F4B1F201D625D63012307408C
:10132000BB40104A1E38136043464A461A70BFF34A
:101330005F8F0022084B1A608AF31088B5E70020FF
:10134000BFF35F8F0022044B1A608AF31088ACE76A
:101350000120ECE700400540280100D0D126002004
:10136000A026002080E200E0EFF3108C72B60A495C
:101370000B68002BFCD0BFF35F8F01238340074A2B
:101380000748136202789A430270BFF35F8F00230D
:101390000B608CF310887047280100D00040054096
:1013A000D126002070B5050014001600002915D0C4
:1013B0000C00002A12D080686B68984729680028C2
:1013C0000ED073009B196200033B1219CB18033A2D
:1013D0009C7088188A5C002A15D10670200070BDA8
:1013E00063001B197200033B9219CB18033A9E70DD
:1013F00088188A5C002A02D104703400EEE75A7023
:1014000004703400EAE75A700670E7E730B583608D
:101410000023CCB243730133047342608373C473FB
:101420000D000068012C06D9421C0133DBB2137099
:1014300003329C42F9D1FF2129404B005918002367
:1014400040180338437030BDF8B5CE464746060015
:101450000C0080B5002907D04D0003686D18033DCE
:101460005A195778002F04D12000C0BCB946B046A5
:10147000F8BD7900C919033988464344597889462B
:1014800000215970517073683A00210080689847B4
:101490003368002814D042469A18947059195B5D3D
:1014A000002B00D053700F70270049463000FFF723
:1014B000CBFF390002003000FFF774FF0400D3E7D0
:1014C000424641465D19AF709A185B5C002B00D014
:1014D0006B701470E9E7C046F0B557464546DE46E6
:1014E0004E46E0B50D006B0001685B19DF1E04007D
:1014F000C85D83B00192CA19002850D043001B1860
:10150000033BCB185E78B446002E1AD1019E002E04
:1015100042D0E67B002E04D073009B19CB18033B0E
:101520005D70A37B002B00D1A573E57300282FD13C
:101530000023537003B0F0BCBB46B246A946A04698
:10154000F0BD72006244033A89184A78904600223E
:101550004A7091465A70010032002000FFF722FFC6
:1015600043468246002B07D05B0021684344033B7F
:10157000CB185A78002A16D1424651462000FFF770
:1015800011FF2168019BCA19002BC2D10028CFD0BE
:1015900043001B18033BCB1800219970C8E7019B3F
:1015A000002BB6D1C4E750008018033809184878DA
:1015B000834648464870587041462000FFF7F2FEC7
:1015C000594680462000FFF73FFF414602002000B9
:1015D000FFF7E8FE8046CFE7F0B557464546DE46C2
:1015E0004E46E0B583B00191457B04006B00006876
:1015F0005B19DF1EC15DC219002952D04B005B1878
:10160000033BC3185E78B446002E1CD1019E002E09
:1016100044D0E67B002E04D073009B19C318033B13
:101620005D70A37B002B00D1A573E573002931D138
:10163000002328005370617303B0F0BCBB46B24670
:10164000A946A046F0BD72006244033A8018427871
:1016500090460022427091465A7020003200FFF7F7
:10166000A1FE43468246002B07D05B00216843441D
:10167000033BCB185A78002A17D142465146200026
:10168000FFF790FE019B01002068C219002BC0D11A
:101690000029CDD04B005B18033BC3180020987085
:1016A000C6E7019B002BB4D1C2E750008018033875
:1016B00009184878834648464870587041462000CB
:1016C000FFF770FE594680462000FFF7BDFE4146F9
:1016D00002002000FFF766FE8046CEE770B50400EA
:1016E00000292CD0437B8B422ED00568480040183F
:1016F000033828188278002A21D053009B18033B16
:10170000EA5CEE188A4202D11BE0002A08D053009E
:101710009B18033BEB185A788A42F6D142785A70EC
:1017200000230122837043702000FFF7D5FE617B08
:1017300002002000FFF736FE6073012000E0002069
:1017400070BD43783370EBE701221900FFF7C4FE48
:1017500060730120F4E7C046F8B5040006200D00D0
:1017600000F0C8F9002844D02A4B2B49E218534214
:101770005A418023DB039C469205284B62441A6041
:10178000274B1A6010008B689843FBD1214B8021B6
:10179000E3185A425341234A5B00490099520620FC
:1017A00000F0A8F92900C00000F07AFBC30921D19C
:1017B00040270121260080256162A36200232C3688
:1017C000AD0135432B60062000F094F9390080000C
:1017D00000F066FB6023E26A53406E221A408023C9
:1017E0005B0133431A60104B236310232B600D3BC6
:1017F000A364F8BD0D4A934203D900230C4F0D4951
:10180000D8E77F221040013040089F0119003F189F
:101810000300CFE70080FCBF00C0004000E00040B4
:1018200000F00040B026002001030000FEFF000091
:10183000C0FF3F00FFFF000030B50C2083B000F078
:10184000B7F9FEF7DBFD00280ED0944B944A1A60DE
:101850005A609A60DA601A615A619A61DA611A62B2
:10186000904A5A6203B030BD8F4CA06700F0F4F983
:1018700001228E4B1A60636C012BFCD103228C4B2E
:101880001A60894A936B012BFCD101330121894AEB
:1018900089480093043300F033F90523874A009305
:1018A0000121874800F02CF9864B5A68FF2A02D89C
:1018B000802252005A608022784C7D4B21691201AF
:1018C000804D1A60002905D0606900F0E9FA013006
:1018D0000138FDD1E0217B4B02201A6811408022A3
:1018E00052012A43116019684840032101401160E8
:1018F00004219A681142FCD08022802192012A435F
:1019000009011160802252005A606F4B23616F4BB6
:101910005968FF2900D85A600321644A6B4B116053
:1019200002399A681142FCD0E0201A6810408022E7
:1019300052011A43106018684840032101400220F8
:10194000116062498A681042FCD0802292011343E0
:10195000802212011A6080225D4B52004A6063614E
:101960005C4B5968FF2900D85A6080225A4BE169C4
:101970001201584D1A60002905D0606900F090FAF4
:1019800001300138FDD1E02252490B681A40802312
:101990005B012B431A60802380229B012B431201A1
:1019A0001A6080223E4B52004A60E3614B4B5968FB
:1019B000FF2900D85A608022494B216A1201474D05
:1019C0001A60002905D0606900F06AFA0130013818
:1019D000FDD1E02241490B681A4080235B012B4373
:1019E0001A60802380229B012B4312011A608023FE
:1019F00080225B004B602A4BD2022362394B59682C
:101A0000914200D25A608022374B616A1201354DF3
:101A10001A60002905D0606900F042FA01300138EF
:101A2000FDD1E0222F490B681A4080235B012B4334
:101A30001A60802380229B012B4312011A608023AD
:101A4000DB024B60174B6362284B5A68FF2A02D8AF
:101A5000802252005A608022254BA1691201234D39
:101A60001A60002905D0606900F01AFA01300138C7
:101A7000FDD1E0221D490B681A4080235B012B43F6
:101A80001A60802380229B012B4312011A6080235D
:101A90005B004B600E4BA361E4E6C046C42000200F
:101AA000006CDC021BB70000008000403CB000402E
:101AB00030B00040002F685900800240008C8647FB
:101AC00000C0024030800040001BB7003C80004056
:101AD000405973075480004054B00040608000407B
:101AE00060B000406C8000406CB000404880004016
:101AF00048B00040014B8000C0587047C42000200F
:101B0000F0B5C646040000B50C2090461F000E003C
:101B100000F0C6F94101091A8D01691AC9000918B6
:101B20008901404600F0BCF9069B3F041A03236874
:101B30001743002B22DB1A4B1A4DE21853425A412D
:101B400080235B019C461203174B62441A60174BBB
:101B50001A601100AB689943FBD1C022231D92018A
:101B60001A4321232660A06013602368002BFCDA4F
:101B70000823E760136080BCB846F0BD3F232268AD
:101B80001340B342D7D1A3681B051B0D8342D2D1AA
:101B9000EE22E368D2021340BB42CCD1EBE7C04651
:101BA0000040FDBF00C0004000E0004000F00040E9
:101BB0008023024A9B000343D362704700800540A4
:101BC00010B5140080221B4BD2051A6000281AD0D1
:101BD0000123194A1843194BDA61194A42401A6223
:101BE000596298628022134BD2051A601549164A31
:101BF0001160E022D2041A60002C07D18022134B1E
:101C000012061A6010BD0D4BD861EBE763011B1B78
:101C10009A008023121912015B049A4200D30C4AE5
:101C20000C4B1A60054B5A608022084BD2051A6093
:101C3000E8E7C04600B00540D3C007B000800540CB
:101C40002D3FF84FFCFF01000820014000A0054097
:101C5000FFFFFF0068250020AA23064A1B0113602E
:101C60002133FF33D3600449044B19605368002BC0
:101C7000FCDA70470040024000B0FA000060024009
:101C80002C4B2D4A70B51A602C4A2D4B2D491A60E9
:101C900014008B689C43FBD12B4D2C4EB54208D2CF
:101CA000013E761BB60808CD984723000134B342A5
:101CB000F9D1FFF7C1FD264A214B1A60214A9368EA
:101CC000DB43DB01DD09002BF9D14022214B224C03
:101CD000224E9A675A671A67DA66B44208D22368B6
:101CE0002000002B20D00834FEF7EEFEB442F6D3DD
:101CF0001B4E1C4CC022A168300000F0D1F9A66038
:101D0000FEF7F4FBFEF7A4FEFFF794F8164C174E0F
:101D1000B44208D2013E361BB60808CC98472B00C7
:101D200001359E42F9D170BD0834FEF7BFFEB442C2
:101D3000D5D3DDE700E00040BFCDFBFEFE7F3C00D9
:101D400000F0004000C00040581700206817002035
:101D5000FFFFFF0100F0014050170020581700203E
:101D60000000002000ED00E0681700207017002040
:101D700000BEFDE7094A03001068002805D00849A5
:101D8000C3188B4207D81360704706480449C3182C
:101D900010608B42F7D901204042F5E76021002016
:101DA00000000420D426002010B5FFF7E1FFC04654
:101DB0000FB400B5084883B000F0A4FA049B002BD0
:101DC00007D005A91800019100F018F8034800F0A9
:101DD00099FA0120FFF7CCFFAC800010BC80001006
:101DE00010B50148FFF7E4FFC080001010B50028CF
:101DF00000D110BD00F03AFAFBE7C04610B5094A21
:101E00000300146884B0002C08D001220091064819
:101E1000524203A9A047012004B010BD00F072FA9D
:101E20000020F9E764250020ED1D00100148042181
:101E3000014B1847900E00205D1E0010142310B5B2
:101E40000100188804331B88984710BD162310B56D
:101E50000100188802331B88984710BDF8B5474623
:101E6000CE4680B50F1E19D01423994604330400C2
:101E70000025012698464B461888434621681B8852
:101E8000984701C4431E9841013540420640AF4285
:101E9000F1D13000C0BCB946B046F8BD0126F8E724
:101EA000114A936F9B0813D210665166002905D022
:101EB000FFE7FFE7FFE7516F106F704704B5002899
:101EC00001D00020C04306F067F8002104BDC046E1
:101ED000F0B5146E556E576F166FFFF7E5FF146679
:101EE000556657671667F0BD000000D010B5014871
:101EF000FFF75EFFCC800010132370B51D78012D15
:101F000011D035DD1C48FFF7A1FF1C4C01008022D9
:101F1000200000F0C5F8022D27D01948FFF78EFFEA
:101F2000184B186070BD184B144C23606360A3609D
:101F3000E36023616361A361E36123626362A3627F
:101F4000E36223636363A363E36323646364A3645F
:101F5000E36423656365A365E36523666366A3663F
:101F6000E36623676367A367E367084BA364D4E76B
:101F7000024C064BA364D0E753440000C81800206D
:101F80004C33000090250020ED1E0010911F001022
:101F900007B5604601880A0A0230DF2AFAD1C9B2C1
:101FA000820804D3028840880004104300E00068DF
:101FB000014A5050039007BDC818002051434343C5
:101FC000C9188C46110C83B24B4310B4040C614306
:101FD00092B280B2504362431C041B0C001910BC27
:101FE00059411304120CC01851416144704700005C
:101FF00010B50148FFF7DCFEC4830010132310B5B1
:1020000010481C78FFF722FF0100012C0AD003DDE5
:1020100080220D4800F044F80C48FFF70FFF0C4BEE
:10202000186010BD084C5422200000F039F823003D
:10203000084A80332168002900D122600434A34279
:10204000F8D1E9E753460000942500204C33000006
:1020500090250020F11F001010B5040005F036FB9C
:10206000002804D0034B04199C4200D810BD02483C
:10207000FFF79EFE00000420E480001010B505F07C
:102080002FFB10BD01480421014B1847A00E002072
:102090005D1E0010014B1B6818470000A00E0020B9
:1020A000014B5B6818470000A00E0020030010B52C
:1020B000080011001B68984710BDC046F0B54646A1
:1020C0004F46D646C0B5437D80460E001700002B14
:1020D00046D0002A3FDD4B1E9946244B01250024A3
:1020E00000209A460DE04B461B5D0D3B5A42534182
:1020F000325DDBB20A2A0BD02B00013401359F423E
:102100001ADD002CEFD14346325D1B7D0A2AF3D144
:10211000002BF1D1A04204DA4346211A1B68301883
:102120009847434650461B680221984701342800CF
:102130002B0001359F42E4DC874204DD4346391A17
:102140001B6830189847F619013E33780D3B5A4208
:10215000534142461375E0BCBA46B146A846F0BDAD
:102160000368110030009847F5E7C0466C81001005
:10217000F0B5DE4657464E464546E0B585B01700F9
:102180001C0006000D00FFF72FF80023304A12183C
:102190004B41002B58DB2F4908008A4605F014FFFD
:1021A00001906B1C03D1300005F074FD0500002C7C
:1021B00025D1294B9846294B1C68002C15D0002F9F
:1021C00020D1274F02E02469002C0ED02368002B79
:1021D000F9D03B68002B01D0A342F4D120002A00A3
:1021E0003100C0472469002CF0D1019B002B27D17E
:1021F00005B0F0BCBB46B246A946A046F0BD194B9F
:102200009846D8E7164B994602ABDF1D0A239B463A
:1022100002E02469002CE8D02368002BF9D04B465B
:102220001B68002B01D0A342F3D12A00310020000B
:10223000C0475B460122390020003B70C047E8E7F9
:10224000504605F099FED3E70122074B5242A2E720
:1022500040420F0050170020BD20001054210020E4
:102260005C210020AD200010FFFFFF7FF0B5CE46BF
:10227000474680B583B06B460600DD1D2870FEF72B
:10228000B3FF00231A4A12184B41002B2BDB1949CC
:102290000800884605F098FE174B81461C68002C04
:1022A00014D0164F02E02469002C0FD02368002BB5
:1022B000F9D03B68002B01D0A342F4D120000122C9
:1022C0002900FFF7FBFE2469002CEFD14B46002BC1
:1022D00005D1300003B0C0BCB946B046F0BD4046A1
:1022E00005F04AFEF5E70122054B5242CFE7C04612
:1022F00040420F0050170020542100205C21002094
:10230000FFFFFF7F70B5040005F0C4FC002301004F
:10231000050001222000FFF72BFF084B1C68002C52
:1023200006D06368002B05D098472469002CF8D1AB
:10233000280070BD2469002CF3D1F9E75421002056
:102340000A4A1368002B05D10CE01A001B691032F1
:10235000002B07D09842F8D1002902D103691360FD
:10236000016170470029FCD01060FAE75421002079
:1023700010B500F0C7F800F0C1FA012010BDC0464A
:10238000F0B50D1E15DD0E4B0D271A680D4B4519C6
:10239000D31859424B410C495B005E5E2021047802
:1023A000A64207D093691942FCD101301460A842BB
:1023B000F5D1F0BD93691942FCD11760F2E7C04630
:1023C000B42600200080FCBFB026002030B50400F9
:1023D0000D1E26DD002010211B4B013C1A6893695D
:1023E000194219D1013093691942FCD11368235461
:1023F0008542F4D1154B1B68002B0CD050239363FE
:10240000516B183B34320B401100802252010A43B9
:102410001360002815D030BD0C4B1B68002BEDD18C
:10242000F7E70A4B1B68002B0BD050223821064BD4
:102430001B689A635A6B3433114080225201134354
:10244000196003204042E6E7B4260020B0200020B7
:10245000064B10B51B68002B06D00021044A1268F9
:102460009163044A1068984710BDC046B020002010
:10247000B4260020B82000201D4BF0B51A68C646CF
:1024800098461C4B0E00D31859424B411A4F143337
:102490001C00050000B53B68002807D0002B11D0B8
:1024A000164B3D601E6080BCB846F0BD002BF7D0D7
:1024B000906300212000FEF743F820001049FEF74A
:1024C00095F9EDE720000E49FEF772F80121200092
:1024D000FEF736F84346502238211B689A635A6B40
:1024E000343311408022520113431960D8E7C046AB
:1024F000B42600200080FCBFB0200020B8200020BF
:102500005124001010B50C4B0C4C1B780C4B0221C5
:102510001B780C4B00202360FDF758FF022101209F
:10252000FDF754FFE12120684902FFF715F9012169
:102530000548FFF705FF10BDEC830010B42600200E
:10254000F083001000400340B00E00207047C046EA
:102550000022014B1A707047CE2600204B790020D4
:10256000FF2B0BD18B79002B08D1CB79012B05D117
:10257000082A03D98A78024B09301A707047C0467E
:10258000CE2600200120704770B5012909D11549D8
:102590005379107909781B0203430020994202D035
:1025A00070BD0120FCE75378012B08D0022BF7D136
:1025B000002064220021FFF703FB0120F0E794785C
:1025C000D278050012021443D20502D5620A934064
:1025D0001D000548FFF732FC7F2103002140280041
:1025E0009847C046CE2600205542000001230370C4
:1025F00000487047B081001048780B788A78000254
:102600001843120410439622CB7810B51B060343DF
:10261000D200934200D010BD0348FFF70FFC002109
:10262000030008009847C04655420000024B18605E
:10263000024B19607047C046B4200020BC20002027
:1026400010B5024B1878FDF78DFF10BDCF26002086
:10265000114B70B51A68002A1AD0EFF3108172B6C8
:1026600010680028FCD0BFF35F8F00220B48596030
:1026700002701B68BFF35F8F1A6081F3108800241B
:102680000025074B1878FDF76DFF2900200070BD6D
:10269000FA240025A400F4E770250020D0260020AD
:1026A000CF26002070B5040000200E0001F002FBD0
:1026B000002835D0002001F015FB002830D0FEF7AF
:1026C00093FD0023184A12184B41002B24DB174DB1
:1026D000280005F079FC002822D0002001F0EAFA59
:1026E00000280BD1012000210324404200F0CCFC43
:1026F0006442280005F040FC200070BD002001F07D
:10270000F1FA0028EED021003200002001F0F6FAA4
:10271000041EEED1033CECE70122054B5242D6E702
:1027200003246442E8E7C04640420F009826002098
:10273000FFFFFF7FF8B5DE46574680B505000C0069
:10274000FEF752FD0023364A12184B41002B5ADB8C
:10275000344908008A4605F037FC002803D1C0BC84
:10276000BB46B246F8BD002001F0A4FA00284ED0C6
:102770000026002C43DD2C4B9B4614E0A9190020B9
:1027800001F030FB070001200021404200F07CFCFA
:10279000002001F0EBFAFEF727FD234BF619186035
:1027A0005960B4422BDD002001F036FBA71B02006C
:1027B000B84200DD3A00002AE0D101200021404269
:1027C00000F062FC002001F0D1FA002001F072FA62
:1027D000002814D0002001F01FFB0028E1D1FEF7F3
:1027E00003FD5B460F001A685B68002184460F48B2
:1027F00012184B419F4202D8D3D19445D1D95046AB
:1028000005F0BAFBABE70122094B5242A0E70020DA
:102810000021054B18605960504605F0ADFB9EE75E
:1028200040420F0098260020C018002020A1070079
:10283000FFFFFF7F10B5244C84B00021200005F07D
:10284000B3FB00281CD1214B1A68002A16D0EFF3E5
:10285000108172B610680028FCD0BFF35F8F01248E
:102860001B48596002781B68D2B20470BFF35F8FB7
:102870000020186081F31088002A0AD004B010BD2F
:1028800001200021404200F0FFFB200005F074FB16
:10289000F4E7FEF705FB0400FEF7A6FCFA2200238E
:1028A000920012184B41002B09DB012102910021FB
:1028B0000191084920000091FEF7F6FADEE70122B7
:1028C000054B5242F1E7C0469826002070250020B3
:1028D000D026002051260010FFFFFF7F054B10B5CA
:1028E0001868002804D0044B0022196801F044F84D
:1028F00010BDC046B4200020BC200020D02310B55D
:102900001B0684B01C68FEF7CBFAFEF7C5FBA0429D
:1029100002D0002004B010BD264B1B7801F066FCED
:102920002548FEF7C3F80120FEF7A4F8FF23234C47
:10293000234920701840FDF73BFE20780121FDF768
:10294000FFFD0520FDF716FE002822D1FEF7A8FAAC
:102950000400FEF749FCFA220023920012184B41B2
:10296000002B22DB01210291002101911549200059
:102970000091FEF799FA0822040000211248FFF79F
:1029800089FB002CC5DB11480121FFF7D9FC012090
:10299000C0E700220E490520FDF734FEFDF7B4FD27
:1029A00001000948FEF7AEF8EDE70122094B52425B
:1029B000D8E7C046F483001098260020CF260020D8
:1029C000352800105126001070250020C80E002068
:1029D00041260010FFFFFF7F00487047688200100B
:1029E000004870471482001070B50400174803783F
:1029F000002B21D0002C06D1C1241548154BA40072
:102A00004380048070BD052C1DD8134B1048A400D2
:102A1000E558811C002304E001330A800231132BA6
:102A20000ED0EA5CDCB2002AF6D1C0230134E4B255
:102A300064009B001C43E4E7112100F017F8D9E77C
:102A4000CA24A400DDE70020DCE7C046B826002049
:102A50002C210020090400007C82001010B50248DF
:102A600000F0D8F810BDC0468825002030B54B1EB8
:102A7000012900D1A7E0664A11780D112C003034ED
:102A80009F2900D9A2E00470012B00D1BEE00F21E4
:102A9000147821400C003034092900DD98E044709E
:102AA000022B00D1B2E054782511290030319F2C3F
:102AB00000D990E08170032B00D1A7E00F212140C5
:102AC0000C003034092900DD87E0C470042B00D1EC
:102AD0009CE094782511290030319F2C00D97FE0AB
:102AE0000171052B00D191E00F2121400C00303401
:102AF000092900DD76E04471062B00D186E0D47808
:102B00002511290030319F2C00D96EE08171072BEF
:102B100000D17BE00F2121400C003034092966DC14
:102B2000C471082B00D171E01479251129003031CE
:102B30009F2C5FD80172092B68D00F2121400C0017
:102B40003034092958DC44720A2B5FD0547925119E
:102B5000290030319F2C52D881720B2B56D00F2177
:102B600021400C00303409294BDCC4720C2B4DD0B1
:102B700094792511290030319F2C00D90731017338
:102B80000D2B43D00F2121400C003034092901DDE9
:102B900037310C0044730E2B38D0D1790C11220040
:102BA00030329F2900D9073282730F2B2ED00F228B
:102BB0000A4011003731092A01DC30321100C1739B
:102BC000102B23D010300023037030BD07345AE798
:102BD00037310C0063E707316CE737310C0074E7DD
:102BE00007317DE737310C0085E707318EE7373154
:102BF0000C0095E707319DE737310C00A3E707315B
:102C0000AAE737310C00C4720C2BB1D1C018DAE737
:102C10008825002030B5002589B004000922002154
:102C200001A80095FFF736FA0922002105A80495AE
:102C3000FFF730FA4B236A466846137004A90D2249
:102C400005F092F91521082220006944FFF728FABF
:102C500009B030BD10B501210520FDF771FC10BD94
:102C600010B500220021024800F05AF910BDC046FC
:102C7000842100208022024B5202DA647047C04651
:102C800000201150F0B5C64600B5060000F022F94C
:102C90000C231B4DFF22AB6705201A49FDF7B2FC40
:102CA00040239846184C402200212000FFF7F2F9FB
:102CB00043460127238321210023144A6770A26021
:102CC000136063545F316184414621870539635441
:102CD0000F4A10496360E260A1620B606362E262C6
:102CE00005F082F980239B052F64EB6490230A4A48
:102CF0003000EA50FFF7BEFF80BCB846F0BDC046CA
:102D000000001150F90400206421002084001050BC
:102D1000000110508000105010D001000B785B06AD
:102D200002D14B78052B00D070478A78014B1A608E
:102D3000FAE7C04600001150F0B5C64600B54B7921
:102D40000C791B0288782343CC787F21A4070140AB
:102D5000C509A20F4F001400324E7A195201B21861
:102D6000907001206840507000205B055B0DD070B2
:102D70001383D4768046CA00012D33D02A48844676
:102D8000880162448446B4446046826040461060D4
:102D9000002933D0254AC90090466246414451601B
:102DA0003F223F339343022C00D15B0020487A1925
:102DB00001685201B218D1601E4ACB18036051401D
:102DC0005340802288465201934228D84346A406A5
:102DD0001C4380237F197F011B06F6191C4373686F
:102DE0001C6011E014488446880162448446B4445F
:102DF0006046826240461060002909D100236D01BF
:102E0000761973600D4BF360012080BCB846F0BDAD
:102E1000084AC9009046624641445162C0E7FEF745
:102E2000DFFFD3E76421002084001050040010501D
:102E30006C25002000001050800010500001105040
:102E400010B505F0D1F810BD10B57F200C00204062
:102E50004000E409110000191A00034B4001C0189A
:102E600000F05EF8012010BD642100207F221300D5
:102E700010B50B400A420BD0C909802258004018F7
:102E80000649400140181201002105F0BDF810BDAF
:102E900002220348C909521A8266EEE76421002023
:102EA000002011507F22100010B508400A4200D1C6
:102EB00010BD0023C909400040180449400108180A
:102EC00000220349C37005F09FF8F1E76421002058
:102ED000FFF7FFFF80220D4B520410B51A600C4B18
:102EE0000C491A6010008B689843FBD10A4C9C2255
:102EF00000212000FFF7CEF8802200215201074870
:102F0000FFF7C8F80923636710BDC04600E0004022
:102F100000F0004000C000400000115000001050C0
:102F200070B5837E04000D001600002B17D100231E
:102F3000E38201332000A682A376256105F024F800
:102F4000002804D080219023084A8902D150200013
:102F500005F002F8002805D00123237770BD05F0A5
:102F60004BF8E4E7200005F037F8F7E700201150B0
:102F7000024B5878431E9841C0B27047841E00200F
:102F8000024B18784007C00F7047C046841E0020CF
:102F9000034B1878FF38431E9841C0B27047C046B3
:102FA000040F0020F8B5CE46474680B52C4E0500EC
:102FB00033780120FF2B03D0C0BCB946B046F8BD22
:102FC000532200212748FFF765F8274C2000FDF722
:102FD0006DFD264B1C60264C20001430FDF782FD51
:102FE000200001F0D1FB234B234F1C60234B98465C
:102FF000002B04D03800FFF7F9FA214B1860424645
:1030000000243B78002A23D01E4A90461C4A914651
:10301000A34212D80FD14346984701343B78E4B21B
:10302000A342F5D228003570FFF72CFE2800FFF7E9
:1030300011FE0120C0E70020BEE74A461268630087
:1030400094461B19DB006344002BF4D01B68E3E7B4
:1030500000F0EEFE3B780020002BADD1E2E7C04649
:10306000040F0020841E00203C1E0020D81E0020DB
:10307000E80E0020DC1E0020C9260020ED250010EF
:103080005C1B0020313E0010F0B5DE4657464E4630
:103090004546E0B58BB001F0AFF8002800D10FE154
:1030A000CD4BCE4D9946CE4B07AC9B462E687269F0
:1030B000EFF3108172B61368002BFCD0BFF35F8F63
:1030C000B1613000210001F0A1F97269B369BFF369
:1030D0005F8F0021116083F31088002800D1EFE09A
:1030E0006378082BE2D84A469B00D3589F46636812
:1030F000002BDBD0A0689847D8E77F222179B84E13
:103100000A405000CB093618F6183000012730303D
:10311000C378BB43C370C3780337BB43C370002A73
:1031200000D1F2E0AF4AF37C002A06D0AE4A127812
:10313000934200D244E19B1ADBB2002B00D0BFE0E7
:10314000AA4E62792078A368B047AFE75B460122B8
:103150001B78012113435A46137033235846D25C1F
:103160005E468A43C254C25C04208243F254013357
:10317000F25C8A43F254F25C8243F25423780020DA
:103180009A4600F005FD602223791A40602A0DD08E
:10319000402A00D1BFE0DB06DB0E012B00D137E176
:1031A000022B00D1D4E0002B00D1C3E02078002115
:1031B000FFF75CFE80212078FFF758FE76E7884E07
:1031C0003378DB0700D471E7894B002B00D16DE722
:1031D00000E000BF6AE7824E3378DB0700D465E782
:1031E000844B002B00D161E730780007C00F00E06E
:1031F00000BF5BE77C4B7B4A9846002627781B780C
:10320000002A00D179E07C4A92469E425FD319D1D0
:103210007A4B38009847434601361B78F6B2B342E2
:10322000F3D26F4E532200213000FEF733FF1022FD
:10323000FF21F01CFEF72EFF30002022FF2113306B
:10324000FEF728FF00F09AFC6D4B002B00D12DE714
:1032500000E000BF2AE7644B624A984600262778C0
:103260001B78002A1FD0644A92469E423AD321D14D
:10327000624B38009847434601361B78F6B2B3429A
:10328000F3D2574E532200213000FEF703FF1022E5
:10329000FF21F01CFEF7FEFE30002022FF2113303C
:1032A000FEF7F8FE07E0380000F000FE43461B780A
:1032B000002BE6D04A4E00F061FC2379B370F5E6AE
:1032C0000BB0F0BCBB46B246A946A046F0BD524684
:1032D0001268730094469B19DB006344002BB1D045
:1032E0005B6896E752461268730094469B19DB00B0
:1032F0006344002BDED05B68BBE7380000F0D6FDEE
:1033000043461B78002B9DD18BE762792078A36818
:1033100000F052FCCAE63B48002800D146E700F026
:1033200037FC0121504608AA00E000BF002800D069
:10333000BCE63BE7202A00D19FE0002A00D035E719
:103340006379092B00D931E72F4A9B00D3589F4658
:103350007023217A0B4200D028E758460F330B40E8
:103360005B00CE09C0181F4F8019C07C002F06D00B
:103370001D4F3F78B84200D2A1E0C01BC0B2002868
:1033800000D097E0002A00D048E1204F0220627967
:1033900090468243012A00D143E14246002A00D0F0
:1033A00004E75B449E193036F37806AA9B07DB0FCF
:1033B000023213805046022308A900F081FB75E613
:1033C0005A00D3180C4ADB001268D318002B00D126
:1033D00076E71E69B5E6C046F4820010DC1E0020C8
:1033E000841E0020ED250010C9260020A5400010F5
:1033F00000000000000000005C1B0020AD3E00103B
:1034000000000000000000001883001080830010FE
:10341000237A0F2B00D9C9E6AA4A5B44DB78002A3D
:1034200005D0A94A127893425ED39B1ADBB2002BD7
:1034300000D0BBE6A548A64E00F0AAFB01215046ED
:10344000F36808AA9847002800D02FE660221600EB
:1034500023791E401A4200D0A8E663790A3B012B6B
:1034600000D9A3E600F094FB63790A2B00D120E198
:10347000504608A900F00CFB18E6237A0F2B00D960
:1034800094E6904A5B44DB78002A06D08E4A127894
:10349000934200D2E6E09B1ADBB2002B00D085E617
:1034A0008A488B4E00F074FB01215046F36808AA4D
:1034B00098473BE70027002A00D167E776E64700F8
:1034C0003818844FC0003F683F18002A00D15DE7DC
:1034D000002F00D16AE6F86800F05AFB012150463F
:1034E000FB6808AA984721E77A4A5E00F318166835
:1034F000DB00F618002E00D158E6F0689CE7A279B0
:10350000019273789A4207D07378002B00D045E17E
:10351000019B002B00D0E9E05B46019A504608A9C8
:103520005A7000F0B5FAC1E5737806AA023213703A
:103530005046012308A900F0C3FAB7E5E088030A62
:10354000C0B20F2B00D931E663499A008A589746DA
:1035500008A800F023FB5046A179FFF781FB022267
:10356000337813433370A1E5E388012B00D01DE6C7
:103570000822337893435A46137079E70220317852
:1035800006AB9A1C8B068908DB0F01400B4310E742
:10359000E388012B00D009E6082233781343EAE7D9
:1035A0004E4B002B00D101E600E000BF021E00D10F
:1035B000FCE5D37891781B020B43504608A900F034
:1035C0007FFAB3E6464B002B00D1EFE500E000BFE9
:1035D000021E00D1EAE55046137808A900F070FAFF
:1035E000A4E62189FFF700FA021EF4D1DEE5022BE2
:1035F00000D111E13B4B002B00D1D7E500E000BF2B
:103600000200002A00D1D1E5D3E7FFF7E5F9122344
:10361000020008A9504600F053FA87E62B482C4FC9
:103620005AE7E288002A08D142465B449E193036A8
:10363000F378012A21D09B072ED5002F00D135E544
:10364000F86800F0A5FAFB6808AA012150469847DF
:10365000002000F09DFA34235A46D35CDB0700D5E6
:1036600024E505E71B4A5E00F3181668DB00F61830
:10367000002E00D19AE5F06814E79B07DDD51A4BC0
:103680001878FFF70FFC0222F37893434246F37059
:10369000F3789343F370D0E7134B1878FFF7E6FB0A
:1036A0000222F37813430122F370F3781343F3708B
:1036B000C3E706AB9A1C5046012308A9167000F018
:1036C000FFF9F3E4ED250010C9260020C13F0010EA
:1036D000808300105C1B002040830010000000006D
:1036E0000000000000000000040F0020581EC0B2BF
:1036F000FFF776F9002800D158E543780593022BAF
:1037000000D053E50121C2790700931152110B40FB
:103710000A4012015B0113435A4612782F318A4343
:1037200013435A461370C37882781B021343C3189D
:1037300009370393039BBB4200D8ACE001227B789E
:1037400000920B2B03D1FB7800933B78FF187B781A
:10375000042B00D02AE50026039B584ADB1B9BB2B2
:103760000293574B04931B78B24263D0B846B342DE
:1037700056D800D01AE5534B534F41465046029A53
:103780009847082803D9029A824200D38AE0049B12
:1037900001361B78F6B2B342E9D207E55046FFF78F
:1037A0004FFBB378454A0093454B002698461B785B
:1037B000002A0DD0454FB34225D820D1444B504666
:1037C0009847434601361B78F6B2B342F3D206E07F
:1037D000504600F06BFB43461B78002B0FD1532261
:1037E00000215846FEF756FC5B461022FF21D81CEC
:1037F000FEF750FC2022FF213648FEF74BFC5B46CB
:10380000009A9A7084E618233A6873439446634496
:10381000002BF4D05B68D2E7FFF7E2F80200F0E695
:103820002A4B1F6818237343FF18002F00D1BDE4F3
:10383000BB68A2E7029B39001A005046984600F088
:103840004BFB082800D8B1E44246824200D2ADE4E6
:103850001D4B9846009B012B28D000220AE0BB7824
:10386000D318DBB25B44D978FF2900D09EE4013243
:10387000DE70D2B2009B9A42F1D180463300020042
:103880003900144800F03CFD049B47441B78B342C8
:1038900000D34FE78AE4104B002B00D13CE600E058
:1038A00000BF39E63B0047469846D3E74246054B02
:1038B00092689A42D1D1059B0093CEE7ED25001086
:1038C000C9260020D93E0010808300105C1B002018
:1038D000AD3E0010971E002000000000F8B55746CE
:1038E0004E46DE4645460C00E0B516001F00002A95
:1038F0003CD0702398461E4B00259B461D4B9A4694
:103900001AE05B461B78200099465346997800F0F0
:10391000BBFC00281CD021004846FFF70DFA002808
:1039200016D0A378DA09012A19D00A9A0135137042
:103930002378E418B54219DA6378052B08D1E378C7
:103940009B079B0FBB4203D14246A3781A42D8D0B3
:103950000020F0BCBB46B246A946A046F8BD0B9A73
:10396000013513702378E418B542E5DB0120F0E758
:10397000040F0020841E0020802310B51B0184B09A
:1039800001930E4B02901C6803916269EFF3108360
:1039900072B611680029FCD0BFF35F8FA3612000CD
:1039A00001A900F0F9FD6269A369BFF35F8F0021EF
:1039B000116083F3108804B010BDC046DC1E0020E7
:1039C000702270B58B780C001A4201D0002070BDB7
:1039D000064B20001D78064B997800F055FC002816
:1039E000F4D021002800FFF7A7F9F0E7040F00202A
:1039F000841E0020074B080019687F2310B5034080
:103A0000C0095B0033301818034B181800F0F8FB9E
:103A100010BDC046D81E0020841E0020074B0800A1
:103A200019687F2310B50340C0095B0033301818B4
:103A3000034B181800F00CFC10BDC046D81E002027
:103A4000841E00207F2070B508400F4C4000CD0937
:103A5000241864193034E5780020ED0700D570BDD6
:103A60000126E578094835430078E570FFF7ECF961
:103A70000028F4D10122E3789343E370E378033222
:103A80009343E370EBE7C046841E0020040F002040
:103A900070B50A4E0500300008220C00FEF700FB4E
:103AA00000237F21F3602278B36091425B412800BC
:103AB000D90100220023FFF7C5FF70BD281E00209A
:103AC000F8B5CE46474691462A4E80B508220700F3
:103AD00030000D009846FEF7E3FA4B46B360002332
:103AE000F381EC79A97924020C43231C444500D9C5
:103AF00043469AB29046B381002C13D0002A1FD0BF
:103B00004B46002B34D0131C402A1FD89BB298463A
:103B100033787F2B20D80021174A43463800FFF71F
:103B200091FF09E07F222B7838009A4264410023FC
:103B30000022E101FFF786FFC0BCB946B046F8BDE0
:103B400033787F2B11D980210022E6E740239BB2F6
:103B5000984633787F2BDED9074C424649462000F1
:103B6000FEF79EFA80212200D7E700210022D4E749
:103B70000020E1E7281E0020441E002010B514227A
:103B800000210248FEF786FA10BDC046281E00201C
:103B9000014B18617047C046281E002010B5054C27
:103BA000010008222000FEF77BFA0023A360E360F7
:103BB00010BDC046281E0020F8B53B4C1D002378E0
:103BC0000600DA09C9098A4213D00020002D00D06E
:103BD000F8BD364B002B03D021003000FFF79EF8D4
:103BE0002369002B44D02200032130009847012094
:103BF000EEE77F2B06D8A068002837D02A002C4992
:103C0000FEF74EFAA368E28959195219E38892B275
:103C1000E281A160934214D03F2D12D9A589A81A40
:103C2000071C80B240282FD82378BFB27F2B2DD815
:103C30000021AA4235D01E4A3B003000FFF702FFA8
:103C4000C6E72369002B05D02200022130009847E7
:103C500000280FD07F220021237830009A4249416A
:103C600000230022C901FFF7EDFEB1E70020AFE716
:103C70000120ADE700213000FFF7F8F83000802187
:103C8000FFF7F4F80120A3E74027CDE7AA4207D0C9
:103C9000074C3A002000FEF703FA80212200CBE710
:103CA00080210022C8E7C046281E00201D2D0010DC
:103CB000441E002010B50400FFF75AF9002801D176
:103CC000002010BDFFF75CF90028F9D1B220800078
:103CD000444303480019037901201840F1E7C04626
:103CE000601B0020B2239B00584310B5024B1030DC
:103CF000C01800F057FB10BD601B0020F0B5B225C6
:103D0000AD0045432C00C646174F1034E41900B5EA
:103D1000200092B200F0CAFB0600200000F060FB19
:103D20003F2803D8300080BCB846F0BD7B19002086
:103D3000D9789846FFF75EFE0028F3D0200000F007
:103D40004FFB3F280AD992239B00EA184346D21919
:103D5000D97800204023FFF775FEE3E743460020B3
:103D6000D978FFF75BFEDDE7601B0020F8B50400A3
:103D7000FFF7FEF8002801D10020F8BDFFF700F999
:103D80000028F9D1B220800044432500144E243588
:103D9000AD19280000F006FB0028EDD037190020EF
:103DA000B978FFF727FE0028E6D0A2239B009C46A7
:103DB0006444A41921002800402200F077FBB97860
:103DC000051E08D0030022000020FFF73BFE00285C
:103DD000D2D02800D1E70020FFF720FECCE7C04674
:103DE000601B002070B5B224A4004443094B243466
:103DF000E418050092B2200000F012FC060020003A
:103E000000F0D0FA3F2801D8300070BD2800FFF73D
:103E1000ADFFF9E7601B0020B2239B00584310B5AB
:103E2000024B2430C01800F0DBFA10BD601B0020EC
:103E3000B222F0B51B4C83B0002120009200FEF7A7
:103E400029F9FF236371184B80260025E3800127A1
:103E500008232100200076002373320027813831A7
:103E60000095073B103000F065FA21002000393141
:103E70003200FF3101230097243000F05BFA8E23DB
:103E80009B00E6183000FCF711FE90239B00266291
:103E9000E6183000E561FCF709FE2663656303B0B0
:103EA000F0BDC046601B002000C2FFFF10B5094CEA
:103EB000052200212000FEF7EDF820002434103008
:103EC00000F062FC200000F05FFC0121200000F007
:103ED0007BFC10BD601B0020F0B54B79060083B061
:103EE000022B02D18B79022B03D00025280003B0CE
:103EF000F0BD304FBB78002BF7D18B7809253B7094
:103F00000C780C196378242B0BD1082A02D80FE007
:103F1000AA420DD32378E418ED186378ADB2242BB0
:103F2000F6D0052B21D0042B02D163790A2B2FD098
:103F3000214C200000F054FA3F28D7D92600103E2B
:103F40000020F178FFF756FD0028CFD0200000F0C8
:103F500047FA3F2817D98E239B00E218F93BF178E6
:103F6000FF3B0020FFF76EFDC0E721003000FFF7A8
:103F700027FD0028B9D0A3787B702378ED18E418CA
:103F80006378ADB2CFE7F1780020FFF747FDADE7EA
:103F90000A4B277801930133009302220223300059
:103FA000E119FFF79BFC00289FD00E35ED19ADB24B
:103FB000BEE7C046601B0020701B0020621B002073
:103FC000F8B5602314001278050013400020202B60
:103FD00012D12F4A6379277916781B023B439E4200
:103FE0000AD16378222B27D007D8202B17D0212B7A
:103FF00002D101293DD00120F8BD232BFCD101299C
:104000003FD00329F7D1234B002BF4D0E178A378DC
:1040100009020020194300E000BF0120ECE701295C
:1040200027D00329E7D11C4B002BE4D00020911DA1
:10403000FEF7E2FA0120DFE7012922D00329DAD1D5
:1040400001252E00A378E478023924021C43147160
:10405000264024321000714000F0B6FB0F4B002BBD
:10406000C9D06208002031002A4000E000BF0120D2
:10407000C2E7072321002800094AFFF721FD01209C
:10408000BAE721002800FFF703FD0120B4E7C0468E
:10409000601B002000000000F92500100000000057
:1040A000661B0020F8B557464E464546DE46E0B54D
:1040B000494F8046FA780C001E008A4264D19AB2B9
:1040C00092239B00FD1810239B46BB4429005846B1
:1040D00000F0A6FA414BD946002B18D07B79D9467F
:1040E000FF2B14D0002E12D0AA19924603E00135FE
:1040F00055450CD07B792A789A42F8D1484600F091
:1041000067F90028F3D1797900E000BFEFE7344B7D
:10411000002B04D0484600F05BF9002852D04846F6
:1041200000F05EF93F2834D84A46103A9378A3420B
:1041300007D001242000F0BCBB46B246A946A046E9
:10414000F8BD284B002B02D0002000E000BF00206B
:10415000FFF70CFE0028ECD1234D280000F022F9D7
:104160000028E6D1002EE4D0B306E2D1243D40463B
:10417000A978FFF73FFC041EDBD000230022404655
:10418000A978FFF75FFCD5E7BB788B42D9D0002434
:10419000D0E74D46103D0020E978FFF72BFC0028C2
:1041A00001D1AB78C3E7484600F01AF93F280CD993
:1041B0008E22920040230020E9784A44FFF742FC17
:1041C000AB78B4E7FEF78AFBA9E70020E978FFF7B0
:1041D00025FCAB78ABE7C046601B00200000000068
:1041E000DD28001000000000841B002010B5002016
:1041F000FEF7D8FE10BDC04610B5FEF7C9FE10BDD3
:10420000037870B5DB0704000E00DD0F002B17D11B
:1042100003785B0701D5280070BD012130004942B9
:1042200003F0CAFE2378DB07DD0F002B0AD12378C9
:104230005B0708D40422237801251343237002E08E
:104240000025E8E70025300003F096FEE3E7C046CE
:1042500070B50D00012104004942280003F0ACFEB6
:1042600023785B07DE0F002B04DB280003F084FEBD
:10427000300070BD2378DB0704D4042223789343F5
:104280002370F2E70026F0E710B5437904791B02AA
:1042900023435B055A0DC3789B079B0F022B05D068
:1042A000032B15D00020012B08D010BD02291CD0F3
:1042B0000020402393424041C0B2F6E702394B420E
:1042C00059410D4B9C46614491424041C0B2ECE7DC
:1042D00002394B425941F023002049429B001940CA
:1042E000403191424041C0B2DFE7044BD3185A42FB
:1042F0005341D8B2D9E7C046FF03000000FEFFFFDC
:104300008A1870B5914207D27F264C78052C04D0CC
:104310000C7809198A42F8D870BD34008D782C4089
:1043200064000419ED0963550C7809198A42ECD828
:10433000F2E7C046F0B5C64600B5040006A8057809
:104340008020884617001E000002824227D8E068BD
:10435000002803D00121494203F02EFE20690028E5
:1043600003D00121494203F027FE43462360730432
:104370005B0CED031D430023E0686381A780E580AB
:104380002381002801D003F0F7FD206901240028D3
:1043900001D003F0F1FD200080BCB846F0BD002440
:1043A000F9E7C04610B5048941898288A3B288B272
:1043B0008C4207D31B1A9BB2101C9A4200D9181CBE
:1043C00080B210BD5100091A5B189BB2F4E7C046D9
:1043D000030000895B89C01A43425841C0B270474C
:1043E00010B5048941898288A3B288B28C4207D370
:1043F0001B1A9BB200209A4201D9D31A98B210BD61
:104400005100091A5B189BB2F4E7C04670B504006E
:1044100000690E00002803D00121494203F0CCFDC1
:1044200025896089A288A9B283B285422CD3CD1A8E
:10443000ADB2002D2ED0AA4208D2914231D38B1AB0
:104440009BB263819A4203D89B1A9BB29A42FBD9D2
:10445000E28821685204520C53433000C918FDF71A
:104460001FFE618901254B1C9BB2A288994214D979
:10447000002352009B1A9BB220696381002801D05F
:1044800003F07AFD280070BD5500ED1A4D19ADB24C
:10449000002DD0D1002563899BB252009342EBDB03
:1044A000E8E789188BB26381CCE7C046F0B5464691
:1044B0004F46D646C0B5060000698946904600289A
:1044C00003D00121494203F077FD31897289B58813
:1044D0008BB294B2914257D31F1BBFB2002F4DD065
:1044E000BD4205D2AB4254D25B199CB22F007481FD
:1044F0004346B84540D89FB2A54203D8641BA4B236
:10450000A542FBD9F288281B5204530C1900984687
:10451000336861439C4680B26144874226D9434652
:10452000584383B21A0048469A46FDF7B9FD434600
:1045300048467D1B64195C4331685044A2B2FDF7C4
:10454000AFFD7189B588CB199BB26A00994217D922
:104550009B1A9BB230697381002801D003F00CFDD7
:104560003800E0BCBA46B146A846F0BD42464846CF
:104570007A43FDF795FDE4E73B1CBCE773899BB2EA
:104580006A009342E6DBE3E76F003F1BDF19BFB22F
:10459000A4E75B1B9CB2A9E7F8B50400C0680E0055
:1045A000002803D00121494203F006FD2589208916
:1045B0006189A288ADB283B28FB2884228D3DB1B57
:1045C0009BB29A4209D8E779FF0906D1E068002832
:1045D00001D003F0D1FC3800F8BD2B00954203D385
:1045E0009B1A9BB29342FBD2E28821685204520C80
:1045F0005343C8183100FDF753FDA2886B1C9BB2D2
:1046000052009D4209D99B1A9BB201272381DDE705
:104610005100C91B5B189BB2D3E79342F5DBF2E76D
:10462000F0B54E464546DE465746E0B5894605009C
:10463000140083B0002A6ED0C068002803D0012186
:10464000494203F0B9FC2F89EA796B89BFB29BB26A
:10465000D20942D1AE889F4267D27200D31AFB18AA
:104660009BB2002290469E4231D9F31A1A1C9BB28B
:10467000A34200D9221C93B29846E8884346FB180F
:104680009BB29B463C00B74203D3A41BA4B2B442E6
:10469000FBD24004430C18009A462B6860439C46AA
:1046A000311B89B2604441454ED352464346494688
:1046B0005A43FDF7F5FCAB885B00BB4501D39B4536
:1046C00003DB5A46D31A9BB29B465B462B81E868B4
:1046D000002822D003F050FC1FE0AA8890469442A4
:1046E00026D29F4244D34146FA1A92B24900121987
:1046F0008A4209DB42469A1892B2171BBFB2934610
:10470000BB423AD97F1ABFB2E3199BB246469B46D9
:10471000A046E888B6E700239846404603B0F0BCC0
:10472000BB46B246A946A046F0BDFB1A9BB298E72D
:10473000E888A21A4404640C54434246A144002A67
:10474000C5D046461F0099E75346594389B20A002F
:1047500001914946FDF7A4FC43469A1B5346A21813
:104760005A430199286892B24944FDF799FCA2E79F
:104770005100CA1ABA1892B2B9E7B942C2DD464628
:10478000E888A0467EE7C04610B50400C06800284F
:1047900003D00121494203F00FFC2069002803D017
:1047A0000121494203F008FC0023E0686381238172
:1047B000002801D003F0E0FB2069002801D003F0BD
:1047C000DBFB012010BDC04670B50400C0680D00C1
:1047D000002803D00121494203F0EEFB20690028A4
:1047E00003D00121494203F0E7FB7F21E379ED018A
:1047F0001940E0682943E171002801D003F0BCFBB7
:104800002069002801D003F0B7FB012070BDC0462D
:1048100070B5104C14E001F08DFD2369DD68281D92
:1048200001F044FEA369013BA3612368013B2360BF
:1048300001F08CFD286B01F029FD280001F026FD18
:104840002368002BE7D1E369012BF9D901F066FD5C
:10485000F6E7C046E4190020F8B504001A4D0E0032
:104860002F686868043001F021FE631C14D06B6867
:104870003C195C60A74209D8286A6968043101F0D4
:10488000FDFD6B6AA34200D96C62F8BDE8696968F6
:10489000043101F0F3FDF8E7002EE8D06A68EB6818
:1048A000996893606A68D1606A68996804324A605E
:1048B0006A6804329A602A006B6808325A61AB68F1
:1048C0000133AB60E1E7C046641A0020F0B5DE4674
:1048D000454657464E464349E0B50D686B1C9B461E
:1048E0000B60002B0CD10B6ACA690A62CB618B6A20
:1048F00001338B620B6A1B68002B69D1013B4B6251
:1049000000224B6A94469B4556D30B6A1B68002BCA
:104910004FD000239A46344B99461C234B4498466B
:1049200036E0504614685861013C14609A6A002AC7
:104930000ED0DC69186A5568A060186A44601C00D3
:104940001834A54249D0504614689862013C14605E
:10495000DC6ACA6A944200D9CC624846A2001219A5
:1049600092008018076A4244BD689F60DD60BD68A0
:104970006E60BE605A61C3690133C3614B68DB6A14
:104980009C4201D901239C460B6A1B68002B10D066
:104990000B6ADB68DB685A68934520D35A699868CC
:1049A000DC681E1D846060605068B042B9D15460FC
:1049B000B7E701235B424B620B6B002B01D0012355
:1049C0009C466046F0BCBB46B246A946A046F0BD38
:1049D0000B6ADB681B684B6292E75060B3E74A6280
:1049E000EAE7C046641A0020E4190020F8B5CE4674
:1049F00047469846930080B5070018000D00994679
:104A000001F038FC061E00D1C2E0682001F032FC43
:104A1000041E00D1C3E068220021FDF73BFB48469D
:104A200007230438266336189E43002D5FD03423B5
:104A30002A78E2542B78002B56D035236A78E2543A
:104A40006B78002B50D03623AA78E254AB78002B39
:104A50004AD03723EA78E254EB78002B44D038234D
:104A60002A79E2542B79002B3ED039236A79E2541B
:104A70006B79002B38D03A23AA79E254AB79002B1A
:104A800032D03B23EA79E254EB79002B2CD03C2343
:104A90002A7AE2542B7A002B26D03D236A7AE254FC
:104AA0006B7A002B20D03E23AA7AE254AB7A002BFB
:104AB0001AD03F23EA7AE254EB7A002B14D0402339
:104AC0002A7BE2542B7B002B0ED041236A7BE254DD
:104AD0006B7B002B08D04223AA7BE254AB7B002BDC
:104AE00002D04323EA7BE25443230022E254089D90
:104AF000042D5AD8231D1800E562994601F0AEFC3A
:104B00002000183001F0AAFC05235D1B4246390045
:104B100030002461A561646201F0ECFB099B206018
:104B2000002B00D01C6001F005FC394D394EAB69FB
:104B30000133AB617368002B40D0336F002B36D04C
:104B4000E26A736F01337367F36A934200D2F262D1
:104B50004F4693009B189B00E9180A6A1C35906821
:104B6000ED18E060CB6990680133A2604760976000
:104B70006561CB6101F0EAFB336F0125002B09D0A1
:104B80007368DA6AE36A9A4204D201F0C7FB01E073
:104B900001256D422800C0BCB946B046F8BD0125CC
:104BA000300001F073FB6D42F4E70425A2E773685F
:104BB000E26ADB6A9342C4D87460C2E77460AB698E
:104BC000012BBDD180232F0098461C37A844380004
:104BD000143701F037FCB845F9D134239846370033
:104BE000B0444046483701F02DFC380001F02AFC63
:104BF00030005C3001F026FC281D01F023FC300061
:104C0000083001F01FFC43463362F76198E7C04665
:104C1000E4190020641A0020F8B5040001F08AFBB2
:104C2000214D002C31D0261D300001F03FFCA36A3D
:104C3000002B03D02000183001F038FC6B6F0133DB
:104C40006B676B68A34222D0184A9369013B93615A
:104C50002B6A1B68002B15D02B6ADB681B686B6204
:104C600001F074FB6B68A34205D0206B01F00EFBD2
:104C7000200001F00BFB2B6F002B02D06B68A342CE
:104C80000ED0F8BD013B6B62EAE76C68CBE7074FDB
:104C90003100381D01F0E6FB3B6801333B60DFE784
:104CA00001F03CFBEDE7C046641A0020E419002047
:104CB00010B5040001F03EFB002C04D0E46A01F0C2
:104CC00045FB200010BD014B5C68F7E7641A00202B
:104CD00010B5040001F044FB002C04D0E46A01F09C
:104CE00043FB200010BD014B5C68F7E7641A00200D
:104CF000F0B5C64604000D0000B5042900D904250E
:104D000001F018FB002C2BD0E36A9D421AD0254FEE
:104D10001DD87E68361B72425641A269E562002AA0
:104D200002DB05214D1BA5611F4D9A002900D318F8
:104D30001C319B006269CB189A4214D0002E01D01E
:104D400001F0ECFA01F002FB80BCB846F0BD7A68D5
:104D5000A24225D07A68D66AAE42B6417642DCE7F6
:104D6000104B5C68D0E7231D1800984601F09EFBAD
:104D7000E26AFB6A9A4200D9FA62474693009B189E
:104D80009B00E9180A6A1C359068ED18E060CB6951
:104D900090680133A260476097606561CB61CDE7A1
:104DA0000026BAE7641A0020E419002070B5040058
:104DB00001F0C0FA4B4D002C47D0261D300001F009
:104DC00075FBA36A002B03D02000183001F06EFBA6
:104DD00028003100083001F045FB6423E25C012A21
:104DE00001D10022E2546523E25C012A01D10022B4
:104DF000E2546623E25C012A01D10022E25401F070
:104E0000A5FA2B6F002B03D16B68A3420FD070BDA6
:104E100001F090FA2B6A1B68002B18D02B6ADB6814
:104E20001B686B6201F092FA6B68A342EFD12A6FA4
:104E3000002A11D12C4BA868996988420AD0AA6F20
:104E4000002A0CD001232B63E1E76C68B5E7013B36
:104E50006B62E7E76A60DAE701F060FAD7E72A6396
:104E6000E96A8A00501880001818C069002825D106
:104E70004C1EA200101980001818C06900282ED1FD
:104E80008C1EA200101980001818C069002826D1B5
:104E9000CC1EA200101980001818C06900281ED16D
:104EA0000C1FA200101980001818C069002816D124
:104EB00005398A00501880001818C06952189200ED
:104EC0009C182300206A243340682062984203D053
:104ED000C3686B60E9629AE7A06A2062F8E7210084
:104EE000ECE7C046641A0020E4190020F8B51E4D16
:104EF00004006B6883420AD0002808D001F01AFA37
:104F00002B00626908339A4202D001F01FFAF8BD03
:104F10002A00A36A5C329342F7D0002BF5D1261DFC
:104F2000300001F0C3FAE16AEB6A994200D9E96204
:104F30000E4B8A009C46521892009F18386A83686C
:104F4000A060E36083685E6063461C339B188660E4
:104F50006361FB690133FB616B68DB6A9942D4D9F9
:104F600001F0DCF9D1E7C046641A0020E419002002
:104F7000F0B5C64600B5040001F0F2F9224E6269B0
:104F800033000833050000279A4206D0280001F0BC
:104F9000EBF9380080BCB846F0BD3000A36A5C3045
:104FA0008342F3D0002BF1D1B36F002B27D173686C
:104FB000E26ADB6A9A4202D9012301373363231D77
:104FC0001800984601F072FAE16AF36A994200D932
:104FD000F1628A000D4B521892009E189C4643467F
:104FE000316A8868A160E060886843608B606346CE
:104FF0001C339B186361F3690133F361C6E7210039
:10500000183101F02FFAC1E7641A0020E4190020DA
:10501000F8B58020CE464746800080B501F02AF9D9
:10502000051E5FD0682001F025F9041E60D06822BB
:105030000021FDF72FF807232563FD35FF359D433C
:10504000494B271D6363380001F008FA200018302F
:1050500001F004FA05230022A361280043492461DA
:10506000646201F047F9424D2060EC6701F062F99B
:10507000404EB3690133B3616B68002B43D02B6F93
:10508000002B39D0E26A6B6F01336B67EB6A934296
:1050900000D2EA6293009B189B00F1180A6A1C3642
:1050A0009068F618E060CB6990680133A2604760B1
:1050B00097606661CB6101F049F92B6F002B04D03A
:1050C0006B68DA6AE36A9A424BD300F0C5FF0128A5
:1050D00008D172B601235B426B62002328672B6004
:1050E00001F08EF9244B1B68C0BCB946B046F8BD30
:1050F000280001F0CBF8F5E76B68E26ADB6A9342BF
:10510000C1D86C60BFE76C60B369012BBAD11C23B6
:10511000984664339946B044B144404601F092F950
:1051200014239C46E044C845F7D120339946A9444E
:10513000484601F087F948239846A844404601F0C4
:1051400081F928005C3001F07DF9301D01F07AF919
:105150002800083001F076F94B462B624346EB619C
:1051600090E701F0DBF8B0E749444C4511480010E6
:10517000641A0020E4190020080F002010B572B650
:105180000022024B1A6701F0C7F810BD641A002014
:10519000024A936F013393677047C046641A002038
:1051A000F0B5D6464F464646C0B501F0C3F8464C6A
:1051B000A36F013BA367A36F002B6BD1434B9A46B0
:1051C0009B69002B66D0E36D002B48D000239946E5
:1051D0001C3398461B3B9C46D044A36EDB68D869C1
:1051E000196A9A6A816048601800566818308642C9
:1051F0005FD0494699621168013911605A6998680F
:10520000D9681F1D816048605068B8424FD011684E
:1052100001391160E26AD96A914200D9E1625046CF
:105220008A00521892008618306A42448568986055
:10523000DD6085686F6087605A61F3690133F361EF
:105240006368DB6A99422ED963462363E36D002BC2
:10525000C3D1236A1B68002B2DD1013B63621C4E16
:105260003568002D13D0012707E0FFF72FFB00283A
:1052700000D02763013D002D08D0A36F002BF4D090
:105280003368013D01333360002DF6D13560236B67
:10529000002B15D1002401F059F82000E0BCBA46DB
:1052A000B146A846F0BDE36D002B96D1D1E7516021
:1052B000ADE751609DE7236ADB681B686362CEE758
:1052C00001F02CF80124E6E7641A0020E41900201C
:1052D000E41A0020F8B51D4EB36F0133B3670268BE
:1052E000356854180460AA4208D9A24208D800259B
:1052F000FFF756FF00281AD02800F8BDA24201D8B7
:10530000A542F4D2376870687D1B043001F0CEF8F6
:10531000736864195C60A7420CD9F0697168012553
:10532000043101F0ABF8FFF73BFF0028E4D100F0B7
:10533000F5FFE1E7306A71680125043101F09EF85C
:10534000736A9C42D4D27462D2E7C046641A0020C9
:1053500070B5041E16D0124DAB6F0133AB672E68CB
:105360006868A419043001F0A1F86B685C60A6427B
:105370000BD9E8696968043101F080F8FFF710FF84
:10538000002801D100F0CAFF70BD286A69680431A5
:1053900001F074F86B6A9C42F0D26C62EEE7C04692
:1053A000641A0020014B18687047C046641A002038
:1053B000014B18687047C046641A0020014B986979
:1053C0007047C046E4190020002801D034307047EF
:1053D000014B5868FAE7C046641A0020084A10B525
:1053E000936F04000133936700F0A4FF054B186826
:1053F0000019186000F0AAFFFFF7D2FE10BDC046EA
:10540000641A0020E41A0020064B10B59B6F002B95
:1054100002D1FFF75BFA10BD034A00201368013385
:105420001360F8E7641A0020E41A0020264830B51B
:10543000836F002B02D00123036330BD0363C16A75
:10544000224A8B005C18A4001419E469002C25D1B1
:105450004D1EAB005C19A4001419E469002C2BD17B
:105460008D1EAB005C19A4001419E469002C23D133
:10547000CD1EAB005C19A4001419E469002C1BD1EB
:105480000D1FAB005C19A4001419E469002C13D1A2
:1054900005398B005C18A4001419E4695B189B00A3
:1054A000D5182B002C6A243364682C629C4205D0EA
:1054B000E3684360C162C0E72900EFE7AC6AE368D4
:1054C0002C624360C162B8E7641A0020E41900202E
:1054D00070B50D001A4C6168183100F0CFFF2668D6
:1054E0006068043000F0E2FF6B1C14D06368AD19F3
:1054F0005D60AE4205D9E0696168043100F0BEFF2D
:1055000070BD206A6168043100F0B8FF636A9D4293
:10551000F6D26562F4E76268E3689968936062684E
:10552000D1606268996804324A60626804329A60A5
:105530002200636808325A61A3680133A360DFE781
:10554000641A0020802370B51500244C1B06626885
:105550000B439361436862689968D3616268116222
:105560006268996818324A60626818329A606368A3
:10557000986203680133036026686068043000F0B5
:1055800095FF6B1C14D06368AD195D60AE4205D900
:10559000E0696168043100F071FF70BD206A6168E4
:1055A000043100F06BFF636A9D42F6D26562F4E756
:1055B0006268E368996893606268D160626899681C
:1055C00004324A60626804329A60220063680832DA
:1055D0005A61A3680133A360DFE7C046641A002064
:1055E00070B5254C43680D0061689E68CB616168A9
:1055F0000E6261689E681831716061681831996047
:1056000063689862036801330360002A19D0236835
:105610006068043000F04AFF6268E368996893604C
:105620006268D1606268996804324A6062680432D4
:105630009A602200636808325A61A3680133A3604C
:1056400070BD26686068AD19043000F02FFF6368F4
:105650005D60AE4209D8206A6168043100F00EFF37
:10566000636A9D42ECD26562EAE7E06961680431F1
:1056700000F004FFE4E7C046641A0020C368F0B5F8
:10568000DB68D869196A9A6A8160486018005468B2
:105690001830844247D000219962116801391160A5
:1056A000264A916F00292DD19868DC685969846079
:1056B000DC681F1D60604868B84236D00868013851
:1056C0000860D06AD96A81422BD81D488C00844674
:1056D0006418A4000619356AA8689D60D860A86897
:1056E000476060461C300019AF605861F3690133B0
:1056F000F36153680020DB6A8B4202D20123013040
:105700001363F0BD116E8C68D9611C628C68606097
:10571000886011005C319962D16D0131D165D96A1F
:10572000E7E7D162D1E75160B5E708684C6001381E
:105730000860D06AD96A8142C7D9F2E7641A0020AA
:10574000E419002080231B06F0B50B4384684168F0
:1057500002690360C3688C6084686160516881423B
:1057600032D0002101611168D8680139116099684F
:105770005A698860D8681F1D41605168B94225D0B8
:105780001168134D01391160D86AEA6A904200D954
:10579000E862104A81009446091889005618346A54
:1057A000A2689C60DA60A268576062461C32521898
:1057B000A7605A61F3690133F3616B68DB6A984251
:1057C00001D901232B63F0BD5460CAE75060D7E7CD
:1057D000641A0020E419002010B5040000F0AAFDAE
:1057E000034B9A6A1B682260636000F0AFFD10BD36
:1057F000641A0020024B9A6A1B680260436070477B
:10580000641A0020F8B50D00040000F093FD104A62
:105810002B681168581C19D0966A27686068B742CF
:1058200008D0884206D8002301242B6000F08EFDAA
:105830002000F8BD0E1AB342F5D95B1A1B182B6075
:10584000936A2360136863600024EFE70024EDE7A8
:10585000641A00200122014B1A637047641A002069
:10586000042905D8002804D01031890041184A6065
:105870007047014B5868F7E7641A0020042909D8DB
:10588000002804D010318900411848687047024B45
:105890005868F7E70020F9E7641A0020014B5868C0
:1058A0007047C046641A0020044B01201A6F002A7A
:1058B00003D0986F4342584140007047641A00205B
:1058C000044B5A68596890695A680523C96A5B1A7B
:1058D00093617047641A0020F0B50400C6462500A5
:1058E00000B51700884600F025FD194E163573687F
:1058F000AA00D358002B06D1012273681B19643308
:105900001A70002F1DD100F021FD00F013FD736807
:10591000AD00EF58002F05D04346002B0DD00022DC
:105920007368EA500023706800196430037000F057
:105930000DFD380080BCB846F0BD73687A1EEA5091
:10594000F0E701213800FEF787FF00F0E7FCDAE717
:10595000641A0020F0B5C646040000B51F00884652
:10596000160000F0E7FC214D6868001964300378E8
:10597000022B0ED041466B68A2009B189A6D8A4399
:105980009A6501226B681B1964331A70069B002B01
:1059900024D100F0DBFC00F0CDFC002F05D023006B
:1059A0006A6816339B009B583B606B6800271B1985
:1059B00064331B78022B06D16B68A2009B189A6D8A
:1059C0000137B2439A650023686804196434237070
:1059D00000F0BCFC380080BCB846F0BD01211800C6
:1059E000FEF73AFF00F09AFCD3E7C046641A0020A5
:1059F000F0B5C64600B5069D06000C0090461F0097
:105A000000F098FC002D04D0230016339B009B5916
:105A10002B600223311964310D780B70EDB2032F26
:105A200016D011D8012F46D0022F04D1A40034196A
:105A3000A36D0133A365012D10D0012400F086FC75
:105A4000200080BCB846F0BD042FF4D1022D3BD01D
:105A500043461634A400A351012DEED17369B168F9
:105A6000F268371D8A6051605968B9422ED01A68B1
:105A7000174D013A1A60F16AEB6A994200D9E9625E
:105A8000144B8A009C46521892009C18206A836826
:105A9000B060F36083685F6063461C339B18876067
:105AA0007361E3690133E3616B68DB6A9942C4D9CE
:105AB00000F034FCC1E74746A4003419A26D174337
:105AC000A765012DB9D1C9E70024B7E75A60CEE731
:105AD000641A0020E4190020F8B54746CE4680B588
